:0C091F0048454C4C4F20574F524C4400B0
:100846001208007F801208C87F441208E77F491209
:1008560008E77F501208E77F411208E77F4B12082E
:10086600E77F801208C87BFF7A09791F1208A580E6
:01087600F091
:100800007F381208C87F831208C87F031208C87F88
:10081000821208C87F021208C87F281208C87F28E1
:100820001208C87F101208C87F011208C87F0F1273
:1008300008C87F0C1208C87F061208C87F0112087A
:06084000C87F800208C819
:1008C8008F08C280E508120877E508540FC454F071
:0F08D800F5A0D281F5A0C2817F017E00020885C4
:1008E7008F0BD280E50B120877E50B540FC454F039
:0F08F700F5A0D281F5A0C2817F017E00020885A5
:0E08770054F0F5A0D281F5A0C2817F017E0071
:10088500E4FDFCD3ED9FEC9E5015E4FBFA0BBB0099
:0F089500010ABA04F8BBFCF50DBD00010C80E4AC
:0108A4002231
:1008A5008B088A09890AAB08AA09A90A120906FF51
:1008B50060101208E77401250AF50AE43509F509FF
:0308C50080E422AA
:0300000002092BC7
:0C092B00787FE4F6D8FD75810B020846C9
:10090600BB010689828A83E0225002E722BBFE02EF
:09091600E32289828A83E4932222
:00000001FF
