:0E0870007F807E251208547F4412082D80F9E7
:10085400EF8EF0120800086225800000086F75987A
:0C08640050438920758DFDD28ED2992260
:0300000002087E75
:0C087E00787FE4F6D8FD75810702087051
:10080000D083D082F8E4937012740193700DA3A387
:1008100093F8740193F5828883E473740293B5F0BE
:0D082000067403936860E9A3A3A3A380D826
:10082D00EFB40A07740D120838740A309811A8999C
:10083D00B8130CC2983098FDA899C298B811F6302B
:07084D0099FDC299F5992203
:00000001FF
