:030000000208DF14
:0C08DF00787FE4F6D8FD75810A0208005D
:0C08EB0048656C6C6F20776F726C6400C5
:100800001208317F801208BD7F441208CE7F491242
:1008100008CE7F501208CE7F411208CE7F4B1208BF
:10082000CE7F801208BD7BFF7A0879EB12086180C9
:01083000F0D7
:100831007F381208BD7F1E7E001208847F0F1208C8
:10084100BD7F0A7E001208847F061208BD7F0A7EE2
:10085100001208847F011208BD7F0A7E000208840D
:1008BD00C281C2808FA0D282C2827F057E000208D3
:0108CD0084A6
:1008CE00C281D2808FA0D282C2827F017E000208B6
:0108DE008495
:10088400E4FDFCD3ED9FEC9E5015E4FBFA0BBB009A
:0F089400010ABA04F8BBFCF50DBD00010C80E4AD
:0108A3002232
:100861008B088A09890AAB08AA09A90A1208A4FFF8
:1008710060101208CE7401250AF50AE43509F5095C
:0308810080E422EE
:1008A400BB010689828A83E0225002E722BBFE0252
:0908B400E32289828A83E4932285
:00000001FF
