:0408B5000208000035
:1008A20075A8817588010509E5097002050863A02C
:0308B200FF80FBC9
:0300030002088C64
:10088C00C0E0C0D00509E50970020508A297B39233
:06089C0097D0D0D0E0323D
:03000000020800F3
:0C080000787FE4F6D8FD758109020847F6
:10080C000208A2E493A3F8E493A34003F68001F258
:10081C0008DFF48029E493A3F85407240CC8C333ED
:10082C00C4540F4420C8834004F456800146F6DFBC
:10083C00E4800B01020408102040809008B5E47E8F
:10084C00019360BCA3FF543F30E509541FFEE493B1
:10085C00A360010ECF54C025E060A840B8E493A378
:10086C00FAE493A3F8E493A3C8C582C8CAC583CAA3
:10087C00F0A3C8C582C8CAC583CADFE9DEE780BE5B
:0108B900003E
:00000001FF
